{
  "contractName": "DeviceTrasactionSmartContract",
  "abi": [
    {
      "inputs": [
        {
          "internalType": "string",
          "name": "",
          "type": "string"
        }
      ],
      "name": "transactionsMap",
      "outputs": [
        {
          "internalType": "string",
          "name": "receiver",
          "type": "string"
        },
        {
          "internalType": "string",
          "name": "sender",
          "type": "string"
        },
        {
          "internalType": "string",
          "name": "inventory1",
          "type": "string"
        },
        {
          "internalType": "string",
          "name": "inventory2",
          "type": "string"
        },
        {
          "internalType": "string",
          "name": "device",
          "type": "string"
        },
        {
          "internalType": "string",
          "name": "date",
          "type": "string"
        }
      ],
      "stateMutability": "view",
      "type": "function",
      "constant": true
    },
    {
      "inputs": [
        {
          "internalType": "string",
          "name": "_id",
          "type": "string"
        }
      ],
      "name": "getTransaction",
      "outputs": [
        {
          "internalType": "string",
          "name": "receiver",
          "type": "string"
        },
        {
          "internalType": "string",
          "name": "sender",
          "type": "string"
        },
        {
          "internalType": "string",
          "name": "inventory1",
          "type": "string"
        },
        {
          "internalType": "string",
          "name": "inventory2",
          "type": "string"
        },
        {
          "internalType": "string",
          "name": "device",
          "type": "string"
        },
        {
          "internalType": "string",
          "name": "date",
          "type": "string"
        }
      ],
      "stateMutability": "view",
      "type": "function",
      "constant": true
    },
    {
      "inputs": [
        {
          "internalType": "string",
          "name": "_id",
          "type": "string"
        },
        {
          "internalType": "string",
          "name": "_sender",
          "type": "string"
        },
        {
          "internalType": "string",
          "name": "_receiver",
          "type": "string"
        },
        {
          "internalType": "string",
          "name": "_inventory1",
          "type": "string"
        },
        {
          "internalType": "string",
          "name": "_inventory2",
          "type": "string"
        },
        {
          "internalType": "string",
          "name": "_device",
          "type": "string"
        },
        {
          "internalType": "string",
          "name": "_date",
          "type": "string"
        }
      ],
      "name": "addTransaction",
      "outputs": [],
      "stateMutability": "nonpayable",
      "type": "function"
    }
  ],
  "bytecode": "0x608060405234801561001057600080fd5b50611600806100206000396000f3fe608060405234801561001057600080fd5b50600436106100415760003560e01c806361c19cb114610046578063ac2ccd0714610396578063f6df5c13146106e6575b600080fd5b6100ff6004803603602081101561005c57600080fd5b810190808035906020019064010000000081111561007957600080fd5b82018360208201111561008b57600080fd5b803590602001918460018302840111640100000000831117156100ad57600080fd5b91908080601f016020809104026020016040519081016040528093929190818152602001838380828437600081840152601f19601f820116905080830192505050505050509192919290505050610b2b565b6040518080602001806020018060200180602001806020018060200187810387528d818151815260200191508051906020019080838360005b83811015610153578082015181840152602081019050610138565b50505050905090810190601f1680156101805780820380516001836020036101000a031916815260200191505b5087810386528c818151815260200191508051906020019080838360005b838110156101b957808201518184015260208101905061019e565b50505050905090810190601f1680156101e65780820380516001836020036101000a031916815260200191505b5087810385528b818151815260200191508051906020019080838360005b8381101561021f578082015181840152602081019050610204565b50505050905090810190601f16801561024c5780820380516001836020036101000a031916815260200191505b5087810384528a818151815260200191508051906020019080838360005b8381101561028557808201518184015260208101905061026a565b50505050905090810190601f1680156102b25780820380516001836020036101000a031916815260200191505b50878103835289818151815260200191508051906020019080838360005b838110156102eb5780820151818401526020810190506102d0565b50505050905090810190601f1680156103185780820380516001836020036101000a031916815260200191505b50878103825288818151815260200191508051906020019080838360005b83811015610351578082015181840152602081019050610336565b50505050905090810190601f16801561037e5780820380516001836020036101000a031916815260200191505b509c5050505050505050505050505060405180910390f35b61044f600480360360208110156103ac57600080fd5b81019080803590602001906401000000008111156103c957600080fd5b8201836020820111156103db57600080fd5b803590602001918460018302840111640100000000831117156103fd57600080fd5b91908080601f016020809104026020016040519081016040528093929190818152602001838380828437600081840152601f19601f820116905080830192505050505050509192919290505050610f0d565b6040518080602001806020018060200180602001806020018060200187810387528d818151815260200191508051906020019080838360005b838110156104a3578082015181840152602081019050610488565b50505050905090810190601f1680156104d05780820380516001836020036101000a031916815260200191505b5087810386528c818151815260200191508051906020019080838360005b838110156105095780820151818401526020810190506104ee565b50505050905090810190601f1680156105365780820380516001836020036101000a031916815260200191505b5087810385528b818151815260200191508051906020019080838360005b8381101561056f578082015181840152602081019050610554565b50505050905090810190601f16801561059c5780820380516001836020036101000a031916815260200191505b5087810384528a818151815260200191508051906020019080838360005b838110156105d55780820151818401526020810190506105ba565b50505050905090810190601f1680156106025780820380516001836020036101000a031916815260200191505b50878103835289818151815260200191508051906020019080838360005b8381101561063b578082015181840152602081019050610620565b50505050905090810190601f1680156106685780820380516001836020036101000a031916815260200191505b50878103825288818151815260200191508051906020019080838360005b838110156106a1578082015181840152602081019050610686565b50505050905090810190601f1680156106ce5780820380516001836020036101000a031916815260200191505b509c5050505050505050505050505060405180910390f35b610b29600480360360e08110156106fc57600080fd5b810190808035906020019064010000000081111561071957600080fd5b82018360208201111561072b57600080fd5b8035906020019184600183028401116401000000008311171561074d57600080fd5b91908080601f016020809104026020016040519081016040528093929190818152602001838380828437600081840152601f19601f820116905080830192505050505050509192919290803590602001906401000000008111156107b057600080fd5b8201836020820111156107c257600080fd5b803590602001918460018302840111640100000000831117156107e457600080fd5b91908080601f016020809104026020016040519081016040528093929190818152602001838380828437600081840152601f19601f8201169050808301925050505050505091929192908035906020019064010000000081111561084757600080fd5b82018360208201111561085957600080fd5b8035906020019184600183028401116401000000008311171561087b57600080fd5b91908080601f016020809104026020016040519081016040528093929190818152602001838380828437600081840152601f19601f820116905080830192505050505050509192919290803590602001906401000000008111156108de57600080fd5b8201836020820111156108f057600080fd5b8035906020019184600183028401116401000000008311171561091257600080fd5b91908080601f016020809104026020016040519081016040528093929190818152602001838380828437600081840152601f19601f8201169050808301925050505050505091929192908035906020019064010000000081111561097557600080fd5b82018360208201111561098757600080fd5b803590602001918460018302840111640100000000831117156109a957600080fd5b91908080601f016020809104026020016040519081016040528093929190818152602001838380828437600081840152601f19601f82011690508083019250505050505050919291929080359060200190640100000000811115610a0c57600080fd5b820183602082011115610a1e57600080fd5b80359060200191846001830284011164010000000083111715610a4057600080fd5b91908080601f016020809104026020016040519081016040528093929190818152602001838380828437600081840152601f19601f82011690508083019250505050505050919291929080359060200190640100000000811115610aa357600080fd5b820183602082011115610ab557600080fd5b80359060200191846001830284011164010000000083111715610ad757600080fd5b91908080601f016020809104026020016040519081016040528093929190818152602001838380828437600081840152601f19601f820116905080830192505050505050509192919290505050611394565b005b600081805160208101820180518482526020830160208501208183528095505050505050600091509050806000018054600181600116156101000203166002900480601f016020809104026020016040519081016040528092919081815260200182805460018160011615610100020316600290048015610bed5780601f10610bc257610100808354040283529160200191610bed565b820191906000526020600020905b815481529060010190602001808311610bd057829003601f168201915b505050505090806001018054600181600116156101000203166002900480601f016020809104026020016040519081016040528092919081815260200182805460018160011615610100020316600290048015610c8b5780601f10610c6057610100808354040283529160200191610c8b565b820191906000526020600020905b815481529060010190602001808311610c6e57829003601f168201915b505050505090806002018054600181600116156101000203166002900480601f016020809104026020016040519081016040528092919081815260200182805460018160011615610100020316600290048015610d295780601f10610cfe57610100808354040283529160200191610d29565b820191906000526020600020905b815481529060010190602001808311610d0c57829003601f168201915b505050505090806003018054600181600116156101000203166002900480601f016020809104026020016040519081016040528092919081815260200182805460018160011615610100020316600290048015610dc75780601f10610d9c57610100808354040283529160200191610dc7565b820191906000526020600020905b815481529060010190602001808311610daa57829003601f168201915b505050505090806004018054600181600116156101000203166002900480601f016020809104026020016040519081016040528092919081815260200182805460018160011615610100020316600290048015610e655780601f10610e3a57610100808354040283529160200191610e65565b820191906000526020600020905b815481529060010190602001808311610e4857829003601f168201915b505050505090806005018054600181600116156101000203166002900480601f016020809104026020016040519081016040528092919081815260200182805460018160011615610100020316600290048015610f035780601f10610ed857610100808354040283529160200191610f03565b820191906000526020600020905b815481529060010190602001808311610ee657829003601f168201915b5050505050905086565b606080606080606080610f1e6114f7565b6000886040518082805190602001908083835b60208310610f545780518252602082019150602081019050602083039250610f31565b6001836020036101000a03801982511681845116808217855250505050505090500191505090815260200160405180910390206040518060c0016040529081600082018054600181600116156101000203166002900480601f01602080910402602001604051908101604052809291908181526020018280546001816001161561010002031660029004801561102b5780601f106110005761010080835404028352916020019161102b565b820191906000526020600020905b81548152906001019060200180831161100e57829003601f168201915b50505050508152602001600182018054600181600116156101000203166002900480601f0160208091040260200160405190810160405280929190818152602001828054600181600116156101000203166002900480156110cd5780601f106110a2576101008083540402835291602001916110cd565b820191906000526020600020905b8154815290600101906020018083116110b057829003601f168201915b50505050508152602001600282018054600181600116156101000203166002900480601f01602080910402602001604051908101604052809291908181526020018280546001816001161561010002031660029004801561116f5780601f106111445761010080835404028352916020019161116f565b820191906000526020600020905b81548152906001019060200180831161115257829003601f168201915b50505050508152602001600382018054600181600116156101000203166002900480601f0160208091040260200160405190810160405280929190818152602001828054600181600116156101000203166002900480156112115780601f106111e657610100808354040283529160200191611211565b820191906000526020600020905b8154815290600101906020018083116111f457829003601f168201915b50505050508152602001600482018054600181600116156101000203166002900480601f0160208091040260200160405190810160405280929190818152602001828054600181600116156101000203166002900480156112b35780601f10611288576101008083540402835291602001916112b3565b820191906000526020600020905b81548152906001019060200180831161129657829003601f168201915b50505050508152602001600582018054600181600116156101000203166002900480601f0160208091040260200160405190810160405280929190818152602001828054600181600116156101000203166002900480156113555780601f1061132a57610100808354040283529160200191611355565b820191906000526020600020905b81548152906001019060200180831161133857829003601f168201915b505050505081525050905080600001519650806020015195508060400151945080606001519350806080015192508060a0015191505091939550919395565b61139c6114f7565b858160000181905250868160200181905250848160400181905250838160600181905250828160800181905250818160a00181905250806000896040518082805190602001908083835b6020831061140957805182526020820191506020810190506020830392506113e6565b6001836020036101000a0380198251168184511680821785525050505050509050019150509081526020016040518091039020600082015181600001908051906020019061145892919061152d565b50602082015181600101908051906020019061147592919061152d565b50604082015181600201908051906020019061149292919061152d565b5060608201518160030190805190602001906114af92919061152d565b5060808201518160040190805190602001906114cc92919061152d565b5060a08201518160050190805190602001906114e992919061152d565b509050505050505050505050565b6040518060c001604052806060815260200160608152602001606081526020016060815260200160608152602001606081525090565b828054600181600116156101000203166002900490600052602060002090601f016020900481019282601f1061156e57805160ff191683800117855561159c565b8280016001018555821561159c579182015b8281111561159b578251825591602001919060010190611580565b5b5090506115a991906115ad565b5090565b5b808211156115c65760008160009055506001016115ae565b509056fea264697066735822122088043ab2e5462647137594cabdf0b96bc76d0b16ebf9a08a8d019d5d8c92299764736f6c634300060c0033",
  "immutableReferences": {},
  "source": "pragma solidity ^0.6.4;\n\ncontract DeviceTrasactionSmartContract {\n\nstruct Transaction { \n    string receiver;\n    string sender;\n    string inventory1;\n    string inventory2;\n    string device;\n    string date;\n}\n\nmapping (string => Transaction) public transactionsMap;\n\n  function getTransaction(string memory _id) view public returns (string memory receiver , string memory sender , string memory inventory1, string memory inventory2 , string memory device , string memory date)\n  {\n    Transaction memory transaction = transactionsMap[_id];\n    receiver = transaction.receiver;\n    sender = transaction.sender;\n    inventory1= transaction.inventory1;\n    inventory2 = transaction.inventory2;\n    device = transaction.device;\n    date = transaction.date;\n  }\n\n  function addTransaction(string memory _id ,string memory _sender,string memory _receiver , string memory _inventory1, string memory _inventory2, string memory _device,string memory _date) public {\n    Transaction memory transaction;\n    transaction.receiver = _receiver;\n    transaction.sender = _sender;\n    transaction.inventory1 = _inventory1;\n    transaction.inventory2 = _inventory2;\n    transaction.device = _device;\n    transaction.date = _date;\n    transactionsMap[_id] = transaction;\n  }\n}\n",
  "sourcePath": "/home/cloudy/Documents/tesis/merak-ethereum/contracts/DeviceTrasactionSmartContract.sol",
  "compiler": {
    "name": "solc",
    "version": "0.6.12+commit.27d51765.Emscripten.clang"
  },
  "schemaVersion": "3.3.4",
  "updatedAt": "2021-05-07T02:09:56.682Z",
  "networkType": "ethereum",
  "devdoc": {
    "kind": "dev",
    "methods": {},
    "version": 1
  },
  "userdoc": {
    "kind": "user",
    "methods": {},
    "version": 1
  }
}